:020000040800F2
:20000000700C00206D0100087501000877010008790100087B0100087D0100080000000044
:200020000000000000000000000000007F0100088101000800000000830100088501000894
:200040005131000881170008BD2D0008D31A000855060008351A0008F5050008F9050008CD
:20006000FB050008FD050008FF0500084105000843050008450500084705000849050008C8
:200080004B0500084D05000815020008870100088701000887010008870100080106000840
:2000A000870100088701000887010008BF2D0008C12D0008C32D0008C52D0008430C00085D
:2000C000410C0008470C0008450C0008DD2B0008DF2B0008D32D0008D52D0008D72D0008D7
:2000E000F7050008D11A0008892F0008870100088701000887010008CD2D00081702000876
:20010000C5060008B51C0008C72D0008E12B0008CF2D0008D12D0008C92D0008CB2D00081B
:200120004F050008510500085305000855050008DFF80CD000F05CF800480047A1420008D2
:20014000700C0020EFF30980704780F309887047EFF30880704780F30888704740BA70479A
:20016000C0BA704750F804DB50F804FB0648804706480047FEE7FEE7FEE7FEE7FEE7FEE7D8
:20018000FEE7FEE7FEE7FEE75D2D00083101000840EA01039B070AD102E008C9121F08C0A8
:2001A000042AFAD203E011F8013B00F8013B521EF9D270470146002000E0401C0A5C002AC4
:2001C000FBD1704730B50B46014600202022012409E021FA02F59D4205D303FA02F5491B8E
:2001E00004FA02F52844151EA2F10102F1DC30BD064C074D06E0E06840F0010394E8070090
:2002000098471034AC42F6D3FFF796FF6C4400088C4400087047704770B52A244FF4803510
:2002200000E06D1E25B1802001F028FD0028F8D015B90324204670BD40F2FF5001F0DCFC05
:200240002046F8E72DE9F04104462A254748476B01E04648476B17F0450FFAD017F0040FD8
:2002600006D00325042001F0C7FC2846BDE8F08117F0010F05D00125012001F0BDFC2846D9
:20028000F4E701F0F5FCA04202D010252846EDE740F2FF5001F0B0FC002001F003FD0646FB
:2002A00033490E4201D12846E0E716F0004F01D01C20DBE716F0804F01D00920D6E716F0B5
:2002C000005F01D00A20D1E716F0805F01D00B20CCE716F0006F01D00C20C7E716F0806F63
:2002E00001D00D20C2E716F0807F01D00E20BDE716F4000F01D00F20B8E716F4800F01D08D
:200300001020B3E716F4001F01D01120AEE716F4801F01D01220A9E716F4002F01D01320DA
:20032000A4E716F4802F01D014209FE716F4003F01D015209AE716F4803F01D0162095E7D2
:2003400016F4004F01D0172090E716F4804F01D018208BE716F4005F01D0192086E716F08B
:20036000080F01D01A2081E728467FE70080014008E0FFFD70B52A250F48446B01E00E48C9
:20038000446B14F0450FFAD014F0040F05D00325042001F031FC284670BD14F0010F05D0B2
:2003A0000125012001F028FC2846F5E740F2FF5001F022FC2846EFE70080014070B52A258E
:2003C0000B48446B01E00A48446B14F0450FFAD014F0040F05D00325042001F00DFC284677
:2003E00070BD40F2FF5001F007FC2846F8E70000008001402DE9F04104460D462A262248AF
:20040000D0F8348002E02048D0F8348018F0450FF9D018F0040F06D00326042001F0ECFB5F
:200420003046BDE8F08118F0010F05D00126012001F0E2FB3046F4E701F01AFCA04202D021
:2004400010263046EDE740F2FF5001F0D5FB002001F028FC074617F4604F03D1380C2880DE
:200460003046DEE717F4005F01D01320D9E717F4804F01D01020D4E717F4004F01D00F2023
:20048000CFE73046CDE700000080014070B52A244FF480350F48466B02E06D1E0D48466BD5
:2004A00016F0450F01D1002DF7D115B116F0040F05D00324042001F09FFB204670BD16F0F8
:2004C000400F05D02A24402001F096FB2046F5E72046F3E700800140F8B504460D46002615
:2004E000154800F0E5FC00BF6B464FF400721349284603F02EFD064610490F48009A01F03A
:20050000F9F8009808B1002EEED00C4942390A4800F0A4FC74B1002608E008484238805D21
:20052000A15D884201D00020F8BD761C102EF4DB0120F9E70020F7E76007002060050020A3
:2005400070477047704770477047704770477047704770477047000010F0805F02D00349C1
:20056000086001E00249486070470000040402400000024021B1026842F00102026004E045
:2005800002684FF6FE731A400260704702460020002112F0805F02D0054B196801E0054B8A
:2005A0001968114201D0012000E0002070470000000402400000024010B50022026847F6A8
:2005C000F0739A430C6A8B6823430C6923434C6923438C692343CC6923434C6A23438C6A0E
:2005E00023431A430260CB6843600B6883604B68C36010BD704770477047704770477047BD
:200600007047000010B5044602F0A4FD0A48006940F002000849086108464461006940F04E
:200620004000086102F096FD0348006941F6FD7108400149086110BD0020024010F0004FBA
:2006400002D00349C86401E00149C8607047000000200240704700000548006940F08000C7
:20066000034908610846006D40F0800008657047002002400549096821F01001034A116035
:20068000114609680143116070470000002002400021034A116801F0380101431160704747
:2006A0000020024004480549486005484860024848640348486470472301674500200240CB
:2006C000AB89EFCD704700002DE9FC4107460C4600252A266846002213460CC008205C494A
:2006E000086010204860402088600020C8604FF480600861084601F00DFB1020FFF7A2FD92
:2007000006462A2E02D03046BDE8FC815148006800044F490860372048604020886000205F
:20072000C8604FF480600861084601F0F3FA3720FFF788FD06462A2E01D03046E4E74648C3
:200740004649086008204860302088600220C8600020086101204861084601F05FFA002045
:200760003B49086033204860402088600020C8604FF480600861084601F0CCFA3320FFF728
:2007800061FD06462A2E01D03046BDE709E04FF4001001F073FA20B101F0B6FA4DF82500F6
:2007A0006D1C2F48406B40F22A610842EFD0082001F064FA28B1082001F01EFA04263046A7
:2007C000A2E7022001F05AFA28B1022001F014FA0226304698E7202001F050FA28B120207E
:2007E00001F00AFA062630468EE74FF4007001F045FA30B14FF4007001F0FEF907263046EB
:2008000082E740F2FF5001F0F7F900980006009901F47F4140EA0120009901F47F0140EA9E
:200820001120009940EA1160606001980006019901F47F4140EA0120019901F47F0140EA21
:200840001120019940EA1160206030465CE700004008002094000020FFFF0F005408002054
:200860000080014010B5FFF7F7FE03480068010102A002F0B3FD10BD300000200D0A466C28
:2008800061736820256420427974650D0A00000070B500241C480068A0B31B4801681B4811
:2008A00002F080FD20E0002303EB8402184B9A5C012505EB8403164DEB5C42EA032202251A
:2008C00005EB8403124DEB5C42EA0342032505EB84030F4DEB5C42EA03610C4B1B1D03EB3B
:2008E000840002F05FFD641C042CDCD30648083001680648143002F055FD06490348001F49
:2009000002F050FD70BD000034000020044800081E0500208976231410B500201A4908609A
:200920000C31086001F108000068006880B21039086001F118000068006881B213A002F0B3
:200940004DFD1148001F0068FF2805D84FF480600D490839086004E04FF400600A4908392C
:2009600008600948001F006880020749091F08600846006800F100600860FFF793FE34208B
:20098000FFF75CFE10BD000024000020466C617368203D2025644B420D0A00002DE9F04117
:2009A00000220023002400250026002791F803C00CF00F0291F803C01CF0100F03D091F830
:2009C00002C04CEA0202B1F800C01CF0FF0F31D0066800242BE04FF0010C0CFA04F5B1F806
:2009E00000C00CEA0503AB4220D1A5004FF00F0C0CFA05F7BE4302FA05FC4CEA060691F891
:200A000003C0BCF1280F06D14FF0010C0CFA04FCC0F814C00AE091F803C0BCF1480F05D16A
:200A20004FF0010C0CFA04FCC0F810C0641C082CD1D30660B1F800C0BCF1FF0F34DD46683B
:200A400000242EE004F1080C4FF0010808FA0CF5B1F800C00CEA0503AB4221D1A5004FF0E6
:200A60000F0C0CFA05F7BE4302FA05FC4CEA060691F803C0BCF1280F05D104F1080C08FA08
:200A80000CF8C0F8148091F803C0BCF1480F07D104F1080C4FF0010808FA0CF8C0F810803F
:200AA000641C082CCED34660BDE8F081416170470161704710B5024600201EE000011378FC
:200AC000302B06DB1378392B03DC1378303B184312E01378412B06DB1378462B03DC13788B
:200AE000373B184308E01378612B05DB1378662B02DC1378573B1843521C0B00A1F10101CB
:200B0000DCD110BD01463F48007848B9A52976D13C480078401C3B4A1070501E01706EE075
:200B200038480078012810D105290AD135480078401C344A1070501E00784840521E1070FD
:200B40005DE000202F4A107059E02E480078022814D11E290EDA00290CDD2A480078401C82
:200B6000284A1070501E00784840521E1070901E017044E00020234A107040E02148C01E6E
:200B80000078C01C1F4A127890420FDD1D480078C01E1D4A11541B480078401C194A1070AF
:200BA000501E00784840521E107028E01548C01E0078C01C134A1278904207D111480078DE
:200BC000401C104A1070901E017018E00D48C01E0078001D0B4A1278904210D10020094AFB
:200BE000107055290BD1501E00784840521E1070501E00781278904201D1012070470020B1
:200C0000FCE70000430000202E05002001460A48008810F0200F05D00848008808704FF087
:200C2000010070470448008810F00F0F02D00348008808700020F4E70038014004380140FC
:200C4000704770477047704708B553A002F0C6FB10205549087000204870544800680068CB
:200C6000000A8870514800680068C87000200871487106214C4802F071FBFFF74DFE86E0BF
:200C80006846FFF7C3FF0028F9D09DF80000FFF739FF00287BD044482E30007820284AD102
:200CA000424808300078082845DD3F482E3040783E492039087008460078002867DD084633
:200CC0000078102863DC38482E300079000636492E31497940EA014033492E31897940EAB6
:200CE000012031492E31C9790843304924390860084600682E49884249D32C4824380068E4
:200D00002A4918390968884241D22120264908700020487001F12E008078887001F12E0091
:200D2000C078C8700421204802F018FB1E48363002F096FA2BE01C482E300078252807D1F9
:200D40001A4808300078022802D1FFF7A1FD1FE015482E300078112819D11448083000788F
:200D6000112814D1102010490870002048700F4800680068000A88700C4800680068C870F7
:200D80000020087148710621074802F0E7FA77E700BFFFF767FD08BD5374617274204941C4
:200DA00050210D0A0000000000050020380000200050000870B504460E46084D00BF2800D7
:200DC000A5F10105FBD106A002F008FB3146204602F0CAF908B1FFF737FF70BD80969800BE
:200DE0004941502057616974696E67210D0A000070B50024002310E0CE5C5D1C4D5D46EA15
:200E000005269D1C4D5D46EA0546DD1C4D5D46EA056540F82450641C1B1D9342ECD370BD67
:200E200070B50023002415E051F82350055551F82350C5F30726651C465551F82350C5F30A
:200E40000746A51C465551F823502D0EE61C85555B1C241D9442E7D370BD00002DE9FC414E
:200E600004460D46002600272068C0F3C506382E02D2C6F1380001E0C6F1780007460822D2
:200E800021466846FFF7CCFF3A460849204600F031FC08226946204600F02CFC102204F1AA
:200EA00008012846FFF7BCFFBDE8FC814400002000210160416005498160054AC260CA43B4
:200EC0000261034AD2434261704700000123456789ABCDEF2DE9F043C0B004460D4626684F
:200EE0006768D4F80890D4F80C80402229466846FFF77EFF07EA090028EA0701084300997D
:200F00000844FF4908440644F00140EA56663E4406EA070029EA0601084301990844F949CA
:200F2000084480444FEA083040EA1858B04408EA060027EA0801084302990844F2490844D7
:200F400081444FEA494040EAD939C14409EA080026EA0901084303990844EC4908440744B5
:200F6000B80540EA97274F4407EA090028EA0701084304990844E64908440644F00140EA11
:200F800056663E4406EA070029EA0601084305990844E049084480444FEA083040EA185889
:200FA000B04408EA060027EA0801084306990844D949084481444FEA494040EAD939C144BF
:200FC00009EA080026EA0901084307990844D34908440744B80540EA97274F4407EA0900E0
:200FE00028EA0701084308990844CD4908440644F00140EA56663E4406EA070029EA060189
:20100000084309990844C749084480444FEA083040EA1858B04408EA060027EA080108431B
:201020000A990844A0F524404F3881444FEA494040EAD939C14409EA080026EA0901084319
:201040000B990844B84908440744B80540EA97274F4407EA090028EA070108430C99084480
:20106000B24908440644F00140EA56663E4406EA070029EA060108430D990844AC490844F7
:2010800080444FEA083040EA1858B04408EA060027EA080108430E990844A649084481443D
:2010A0004FEA494040EAD939C14409EA080026EA090108430F9908449F4908440744B8059D
:2010C00040EA97274F4407EA080029EA0801084301990844994908440644700140EAD66600
:2010E0003E4406EA090027EA09010843069908449349084480444FEA482040EAD858B04449
:2011000008EA070026EA070108430B9908448D49084481444FEA893040EA9949C14409EAA6
:20112000060028EA0601084300990844864908440744380540EA17374F4407EA080029EAA6
:201140000801084305990844804908440644700140EAD6663E4406EA090027EA090108433A
:201160000A9908447A49084480444FEA482040EAD858B04408EA070026EA070108430F99BA
:2011800008447449084481444FEA893040EA9949C14409EA060028EA0601084304990844EC
:2011A0006D4908440744380540EA17374F4407EA080029EA08010843099908446749084450
:2011C0000644700140EAD6663E4406EA090027EA090108430E9908446149084480444FEA27
:2011E000482040EAD858B04408EA070026EA07010843039908445B49084481444FEA89304E
:2012000040EA9949C14409EA060028EA0601084308990844544908440744380540EA17378A
:201220004F4407EA080029EA080108430D9908444E4908440644700140EAD6663E4406EA53
:20124000090027EA09010843029908444849084480444FEA482040EAD858B04408EA0700AF
:2012600026EA07010843079908444249084481444FEA893040EA9949C14409EA060028EA75
:20128000060108430C9908443B4908440744380540EA17374F4487EA090080EA080005991E
:2012A0000844364908440644300140EA16763E4486EA070080EA09000899084430490844C8
:2012C00080444FEAC82040EA5858B04488EA060078400B9908442B49084481444FEA094034
:2012E00040EA1949C14489EA080070400E990844254908440744F80540EA57274F4445E0DD
:2013000078A46AD756B7C7E8DB702024EECEBDC1AF0F7CF52AC68747134630A8019546FDF4
:20132000D8988069AFF7448BBED75C892211906B937198FD8E4379A62108B44962251EF6ED
:2013400040B340C0515A5E26AAC7B6E95D102FD65314440281E6A1D8C8FBD3E7E6CDE1212A
:20136000D60737C3870DD5F4ED145A4505E9E3A9F8A3EFFCD9026F678A4C2A8D4239FAFFE7
:2013800081F6718722619D6D0C38E5FD87EA090080EA080001990844BA490844064430018F
:2013A00040EA16763E4486EA070080EA090004990844B549084480444FEAC82040EA585819
:2013C000B04488EA0600784007990844AF49084481444FEA094040EA1949C14489EA080066
:2013E00070400A990844AA4908440744F80540EA57274F4487EA090080EA08000D990844AE
:20140000A44908440644300140EA16763E4486EA070080EA0900009908449F490844804419
:201420004FEAC82040EA5858B04488EA06007840039908449949084481444FEA094040EA06
:201440001949C14489EA0800704006990844944908440744F80540EA57274F4487EA0900E9
:2014600080EA0800099908448E4908440644300140EA16763E4486EA070080EA09000C99A7
:2014800008448949084480444FEAC82040EA5858B04488EA060078400F99084483490844F3
:2014A00081444FEA094040EA1949C14489EA08007040029908447E4908440744F80540EABD
:2014C00057274F4467EA080080EA090000990844784908440644B00140EA96663E4466EA4A
:2014E00009007840079908447349084480444FEA882040EA9858B04468EA070070400E99D4
:2015000008446E49084481444FEAC93040EA5949C14469EA060080EA08000599084468494E
:2015200008440744780540EAD7274F4467EA080080EA09000C990844624908440644B0012D
:2015400040EA96663E4466EA09007840039908445D49084480444FEA882040EA9858B04445
:2015600068EA070070400A9908445849084481444FEAC93040EA5949C14469EA060080EAFB
:20158000080001990844524908440744780540EAD7274F4467EA080080EA0900089908443A
:2015A0004C4908440644B00140EA96663E4466EA090078400F9908444749084480444FEAC9
:2015C000882040EA9858B04468EA07007040069908444249084481444FEAC93040EA5949C7
:2015E000C14469EA060080EA08000D9908443C4908440744780540EAD7274F4467EA08007C
:2016000080EA090004990844364908440644B00140EA96663E4466EA090078400B990844FF
:201620003149084480444FEA882040EA9858B04468EA07007040029908442C4908448144BB
:201640004FEAC93040EA5949C14469EA060080EA080009990844264908440744780540EA21
:20166000D7274F44206830442060606838446060A0684844A060E0684044E06040B0BDE824
:20168000F083000044EABEA4A9CFDE4B604BBBF670BCBFBEC67E9B28FA27A1EA8530EFD476
:2016A000051D880439D0D4D9E599DBE6F87CA21F6556ACC4442229F497FF2A43A72394AB98
:2016C00039A093FCC3595B6592CC0C8F7DF4EFFFD15D84854F7EA86FE0E62CFE144301A368
:2016E000A111084E827E53F735F23ABDBBD2D72A91D386EB2DE9F04704460D4616460027AA
:20170000B846B9462068C0F3C508C8F14009206800EBC60020602068B0EBC60F02D2606875
:20172000401C6060606800EB567060604E451CD304F1180101EB08004A462946FEF728FDB7
:2017400004F1180104F10800FFF7C4FB4F4605E0E91904F10800FFF7BDFB403707F14000F3
:20176000B042F5D94FF0000800E00027F21BE91904F1180303EB0800FEF70AFDBDE8F0872E
:201780007047000029B1064A52690243044B5A6104E0034A52698243014B5A6170470000EF
:2017A0000010024029B1064A12690243044B1A6104E0034A12698243014B1A617047000034
:2017C0000010024029B1064A92690243044B9A6104E0034A92698243014B9A617047000014
:2017E0000010024029B1064AD2680243044BDA6004E0034AD2688243014BDA6070470000F8
:201800000010024010B500F02FF84FF4803000F0EBF800F045F90446012C24D11020FEF715
:2018200029FF0220FEF734FF002000F0D3F8002000F00CF9A00200F0FFF84FF4E011200465
:2018400000F016F9012000F00DF900BF392000F09BF80028FAD0022000F018F900BF00F013
:20186000B1F80828FBD110BD0F48006840F001000D490860084640680C4908400A494860BA
:20188000084600680A490840074908600846006820F4802008600846406820F4FE004860BD
:2018A0004FF41F0088607047001002400000FFF8FFFFF6FE30B500210022002300242E4D02
:2018C0006D6805F00C0121B1042905D0082923D105E02A4D056022E0284D05601FE0264D29
:2018E0006D6805F47012244D6D6805F48033022505EB92421BB9224D554305600BE01E4D25
:201900006D6815F4003F03D01D4D5543056002E01A4D5543056002E0184D056000BF00BF00
:20192000154D6D6805F0F0010909164D6C5C0568E5404560104D6D6805F4E061090A114D39
:201940006C5C4568E54085600B4D6D6805F46051C90A0C4D6C5C4568E540C560064D6D681E
:2019600005F44041890B074D10356C5CC568B5FBF4F5056130BD00000010024000127A0001
:2019800000093D000000002010B501460022002300204A11012A02D1094C236806E0022A25
:2019A00002D1074C236A01E0054C636A01F01F02012494401C4201D0012000E0002010BD4D
:2019C000001002400248406800F00C0070470000001002400021034A516821F0F001014351
:2019E00051607047001002401149096821F480310F4A11601146096821F480211160B0F53E
:201A0000803F03D0B0F5802F0ED106E00849096841F48031064A116007E00549096841F4D7
:201A2000A021034A116000E000BF00BF7047000000100240704700000021034A516821F4CD
:201A4000E061014351607047001002400021044A516821F4605141EAC00151607047000005
:201A6000001002400149086670470000000042420022054B5A6822F47C1240EA01031A43BE
:201A8000014B5A6070470000001002400021034A516821F0030101435160704700100240FD
:201AA00070B500240025002600BF3120FFF76CFF0646641CB4F5A06F01D0002EF5D0312088
:201AC000FFF762FF08B1012500E00025284670BD704770477CB504462A25684600210A46D9
:201AE00006C0002000F0DEF810F0007F02D00E2528467CBD69463E48006880B2FEF7E4FD6A
:201B000005462A2D01D02846F3E7012C37D1019810F4802F30D036480068000435490860B9
:201B200037204860402088600020C860A0020861084600F0EFF83720FEF784FB05462A2D79
:201B400001D02846D5E702202A49086006204860402088600020C8604FF480600861084655
:201B600000F0D8F80620FEF76DFB05462A2D01D02846BEE72846BCE725252846B9E701989A
:201B800010F4803F31D01A48006800041949086037204860402088600020C8604FF4806037
:201BA0000861084600F0B6F83720FEF74BFB05462A2D01D028469CE700200E4908600620D5
:201BC0004860402088600020C8604FF480600861084600F09FF80620FEF734FB05462A2D80
:201BE00001D0284685E7284683E72525284680E7940000204008002001498863704700003B
:201C0000008001400149086070470000A000304201490860704700008C05304200210A4BA6
:201C200002685A6242689A621A46D16A21F0F701D0E902231A4303691A4343691A431143D3
:201C4000014AD162704700000080014000200649086048608860C86048628862C8620348F6
:201C600088630020C863704700800140FF07C00001480069C0B270470080014001460020ED
:201C8000034A526B0A4201D0012000E000207047008001400248006800F003007047000028
:201CA000008001400146002201480A1810687047148001407047000029B1064AD26B024328
:201CC000044BDA6304E0034AD26B8243014BDA63704700000080014000210A4A516847F6D9
:201CE000FF629143027D83681A4343681A43C3681A4303681A4303691A431143014A516077
:201D000070470000008001400148006870470000808001400021094B02689A601A46D16830
:201D20006FF30A01D0E901231A43C3681A4303691A431143014AD160704700000080014063
:201D40000549096821F00301034A11601146096801431160704700000080014010B50248ED
:201D6000FEF714FC10BD00000020001070B504462A2522480068032802D12725284670BDEC
:201D80001E48006838B11D480068012803D01B480068022830D1B4F5805F02D127252846B8
:201DA000EDE7B4F5006F15D10120FFF793FE05462A2D21D1012012490875002008604860EC
:201DC00088604FF40060C860002008610846FFF783FF11E00020FFF77DFE05462A2D0BD101
:201DE0000120074908750020086048608860C86008610846FFF770FF2846C0E790000020D4
:201E00002808002070B504460D462349002002F047F8012221A1244802F058F8064631469D
:201E200022A001F0DBFA002E33D110202549087001204870244800680068000A8870224851
:201E400000680068C87000200871487106211D4801F084FA1448C0681B49091D086012495C
:201E60002046FEF739FB60B11748001D0068A84207D116A001F0B2FA0B4801F046FF01201F
:201E800070BD094801F082F8074801F03EFF0120F6E70020F4E70000BC000020557064617D
:201EA00074652E6865780000E40200204F70656E207570646174652E6865783A25640D0A4E
:201EC0000000000000050020380000204D6435207468652073616D65210D0A0030B5014614
:201EE0002A200022CB4B1B6881F84E30C94B1B1D1B68A1F84C30C84B1B681A0E93090B702D
:201F0000C2F383034B7002F003038B70C24B1B68C3F30742CA70C04B1B68C3F307220A7127
:201F2000BD4B1B68DAB24A71BB4B5B681A0E1301CB80B94B5B68C3F30742CB8843EA121314
:201F4000CB8002F00F030B72B34B5B68C3F30722D3094B72C2F380138B72C2F34013CB72F2
:201F6000C2F300130B7300234B73AA4B1B681BB1A84B1B68012B3DD193071B0D0B61A64B27
:201F80005B68DAB20B6943EA82030B61A24B9B681A0E0B6943EA92130B61C2F3C2030B759C
:201FA00002F007034B759C4B9B68C3F3074253098B75C2F38203CB7593075B0F0B76964B40
:201FC0009B68C3F307220B7E43EAD2130B760B695B1C4B640C7E4D6CA41C0123A3405D43BF
:201FE0004D640C7A0123A3408B64D1E9113463434B6422E0874B1B68022B1ED1864B5B6859
:020000040800F2
:20200000DAB293069B0A0B61834B9B681A0E0B6943EA02230B61804B9B68C3F307420B691E
:2020200013430B617C4B9B68C3F307220B695B1CDB044B644FF400738B64C2F3801301F8D6
:20204000193F93065B0E4B70734B9B68DAB24B7843EAD2134B7002F07F038B706E4BDB6823
:202060001A0ED309CB70C2F341130B71C2F382034B7193071B0F8B71674BDB68C3F30742F2
:202080008B7943EA92138B71C2F34013CB7100230B7202F001034B725F4BDB68C3F307220B
:2020A000D3098B72C2F38013CB72C2F340130B73C2F300134B73C2F381038B7302F0030387
:2020C000CB73554BDB68DAB253080B7401234B74514B10331B681A0ECA74A1F119014E4B89
:2020E00003F110031B68C3F307424FEA0224CC85494B03F110031B68C3F30722CC8D44EA23
:202100000204CC85444B03F110031B68DAB24FEA02640C63404B03F110035B684FEA1362B2
:202120000B6B43EA02440C633B4B03F110035B68C3F307420B6B43EA02240C63364B03F14B
:2021400010035B68C3F307220C6B44EA02040C63314B03F110035B68DAB24FF034035A54BA
:202160002D4B03F110039B684FEA13624FF035035A54294B03F110039B68C3F307424FEA54
:2021800002648C63244B03F110039B68C3F307228B6B43EA02448C631F4B03F110039B68C6
:2021A000DAB28B6B43EA02248C631B4B03F11003DB684FEA13628C6B44EA02048C63164B82
:2021C00003F11003DB68C3F307424FF03C035C5C44EA12145C544FEA02734FEA1354CC87DB
:2021E0000D4B03F11003DB68C3F30722CC8F44EA0204CC87084B03F11003DB68DAB24FEA1A
:2022000052044FF040035C544FF001044FF041035C5430BD90000020B807002010B52A2430
:2022200000F012F9FFF712FD00F036F904462A2C01D0204610BD00F033F804462A2C01D04F
:202240002046F7E70120144908750020086048608860C86008610846FFF73EFD2A2C03D1ED
:202260000E48FFF73BFE04462A2C06D10B49B1F84C10080400F08AFC04462A2C04D14FF4CF
:202280000060FFF773FD04462A2C03D1002000F097FC04462046CDE728080020D8070020AE
:2022A00038B52A2401200090FFF7F4FC10B92524204638BD48480068042829D00020474912
:2022C000086002204860C02088600020C8604FF4806008610846FFF71DFDFEF74BF8044650
:2022E0002A2C01D02046E4E70020FFF7DBFC3C4908600420FFF7D6FC394948600820FFF778
:20230000D1FC374988600C20FFF7CCFC3449C8603148006858B130480068012807D02E48B9
:202320000068062803D02C480068022817D100202A49086003204860402088600020C860F0
:202340004FF4806008610846FFF7E4FC69460320FEF750F804462A2C01D02046A9E71E48F1
:202360000068042834D0BDF800001B49091D0860BDF8000000041949086009204860C020EA
:2023800088600020C8604FF4806008610846FFF7C1FCFDF7EFFF04462A2C01D0204688E758
:2023A0000020FFF77FFC0E49103908600420FFF779FC0B49103948600820FFF773FC0849D2
:2023C000103988600C20FFF76DFC05491039C8602A2420466DE70000900000204008002062
:2023E000C807002030B58BB004460D461348FEF7B3F800211248FEF7BDF812480090019492
:2024000000200290A808039000200490802005908000069080000790002008904FF4005066
:20242000099000200A9069460548FEF7C5F801210348FEF79FF80BB030BD000000F00010FA
:20244000440402408080014008B501213020FFF7B9F94FF4F850ADF8000003208DF8020000
:2024600018208DF8030069460948FEF797FA0420ADF8000069460748FEF790FA0121880224
:20248000FFF780F901210220FFF77CF908BD000000100140001401402DE9F0412A240025F9
:2024A000002600274FF00008B2205B4908750020086048608860C86008610846FFF70CFCA0
:2024C0000320FFF73DFC0120FFF79CFB00205349086048608860C8604FF480600861084646
:2024E000FFF718FCFDF798FE04462A2C02D02046BDE8F0814FF4D570484908600820486009
:20250000402088600020C8604FF4806008610846FFF700FCFDF7BAFF04462A2C05D101201B
:202520003F4908604FF0804812E000203B49086037204860402088600020C8604FF48060F4
:2025400008610846FFF7E6FB3720FDF77BFE04460020324908603720486040208860002075
:20256000C8604FF4806008610846FFF7D3FB3720FDF768FE04462A2C4CD138E0002027497F
:20258000086037204860402088600020C8604FF4806008610846FFF7BDFB3720FDF752FE21
:2025A00004462A2C01D02046A2E71E4848EA00001A49086029204860402088600020C860D7
:2025C0004FF4806008610846FFF7A4FBFDF7F6FE04462A2C01D020468AE70020FFF762FBE9
:2025E0000546012080EAD57080F00107761C1FB94FF6FF708642C1D34FF6FF70864202D37D
:202600001B24204674E705F08040050002D002200349086020466BE72808002040080020E8
:2026200090000020000010802DE9F04704460D4616462A274FF00009A0464FF0000A1CB977
:2026400026273846BDE8F0872A208A4908700020894908608949086089488A49086000203E
:2026600048608860C860086148610846FFF7D6FA0020FFF7CDFA0020FFF714FB10F0007FFB
:2026800002D00E273846DDE77C480C380068022801D106026D0A002E20DDB6F5006F1DDCC8
:2026A000701E30421AD1304601F031F9824676480660102074494860402088600020C8608D
:2026C0004FF4806008610846FFF724FB1020FDF7B9FD07462A2F04D03846B3E726273846D4
:2026E000B0E7674867490860084646604FEA0A1088600220C8600020086101204861084662
:20270000FFF78CFA5D48066000205C49091D08605E4804605C48056011205B4948604020EF
:2027200088600020C8604FF4806008610846FFF7F1FA1120FDF786FD07462A2F01D0384611
:2027400080E74E48001F0068022855D112E04FF40040FFF793FA68B14FF0000905E0FFF771
:20276000D3FA48F8290009F10109B9F1080FF6D308F120084648406B40F22A610842E6D07E
:202780000820FFF77BFA28B10820FFF735FA0427384657E70220FFF771FA28B10220FFF725
:2027A0002BFA022738464DE72020FFF767FA28B12020FFF721FA0627384643E74FF40070D0
:2027C000FFF75CFA30B14FF40070FFF715FA0727384637E705E0FFF797FAC8F8000008F125
:2027E00004084FF40010FFF749FA0028F3D140F2FF50FFF701FA3AE02048001F00680128B1
:2028000013D1012148F22A30FFF756FA00BF1A48006818B9174800782A28F8D015480078B8
:202820002A2824D0134800780CE71448001F0068E8B9012140F22A30FFF73EFA0120FFF715
:20284000E7F931462046FFF7CDFD00BFFFF786FA30B90948006818B9064800782A28F5D076
:20286000044800782A2802D002480078EAE63846E8E60000A4000020A80000209C0000204A
:20288000FFFF0F005408002040080020B4000020008001402DE9F05F04460D4616461F46EF
:2028A0004FF02A084FF00009A2464FF0000B24B94FF026084046BDE8F09F2A20AB49087073
:2028C0000020AB490860AB490860AB48AB490860002048608860C860086148610846FFF7A3
:2028E0009DF90020FFF794F90020FFF7DBF910F0007F03D04FF00E084046DCE79D480C389C
:202900000068022801D106026D0A002E21DDB6F5006F1EDC701E30421BD1304600F0F7FF4C
:20292000834697480660102095494860402088600020C8604FF4806008610846FFF7EAF990
:202940001020FDF77FFC8046B8F12A0F05D04046B1E74FF026084046ADE7012F70D907FB3B
:2029600006F0B0F1007F03D34FF026084046A2E707FB06F07F4908600120091D086081484F
:2029800004607D487D49086007FB06F048604FEA0B1088600220C860002008610120486167
:2029A0000846FFF73BF976480560122074494860402088600020C8604FF48060086108467B
:2029C000FFF7A8F91220FDF73DFC8046B8F12A0F01D040466FE76748001F006802287ED1FD
:2029E00012E04FF40040FFF749F968B14FF0000905E0FFF789F94AF8290009F10109B9F153
:202A0000080FF6D30AF1200A5F48406B40F22A310842E6D00820FFF731F930B10820FFF78B
:202A2000EBF84FF00408404645E70220FFF726F938B10220FFF7E0F84FF0020840463AE7B6
:202A400092E02020FFF71AF930B12020FFF7D4F84FF0060840462EE74FF40070FFF70EF940
:202A600038B14FF40070FFF7C7F84FF00708404621E705E0FFF748F9CAF800000AF1040A42
:202A80004FF40010FFF7FAF80028F3D14FF48070FFF7F4F838B337480C38006848B135486E
:202AA0000C380068022804D032480C380068012819D10020324908600C2048604020886014
:202AC0000020C8604FF4806008610846FFF722F90C20FDF7B7FB8046B8F12A0F00E007E082
:202AE00001D04046E7E640F2FF50FFF785F83BE02048001F0068012813D1012148F22A30F1
:202B0000FFF7DAF800BF1A48006818B9174800782A28F8D0154800782A2825D013480078B3
:202B2000C9E61448001F0068F0B9012140F22A30FFF7C2F80120FFF76BF807FB06F1204623
:202B4000FFF750FC00BFFFF709F930B90848006818B9064800782A28F5D0044800782A2817
:202B600002D002480078A6E64046A4E6A4000020A80000209C000020FFFF0F005408002054
:202B800040080020B40000200080014070B504462A250A480460072008494860402088605C
:202BA0000020C8604FF4806008610846FFF7B2F80720FDF747FB0546284670BD40080020A8
:202BC00001462A2019B1012901D0022902D1024A116000E0262070479800002070477047E1
:202BE0007047000000BF0449098811F0400FFAD002490880704700000038014004380140E7
:202C000010B500F001F810BD002000212E4A126842F480322C4B1A6000BF2B4A126802F489
:202C20000031401C11B9B0F5A06FF6D1264A126812F4003F01D0012100E00021012942D162
:202C4000224A126842F01002204B1A601A46126822F003021A601A46126842F002021A6070
:202C6000194A5268184B5A601A4652685A601A46526842F480625A601A46526822F47C129C
:202C80005A601A46526842F4E8125A601A46126842F080721A6000BF0B4A126812F0007FEF
:202CA000FAD0094A526822F00302074B5A601A46526842F002025A6000BF034A526802F058
:202CC0000C02082AF9D17047001002400020024010B50B48007808B9012000E000200849BC
:202CE00008700846007828B14FF480710548FDF7DDFE04E04FF480710248FDF7D9FE10BD73
:202D000084000020000C014010B54FF480710448FDF7CEFE00210820FEF754FD10BD000061
:202D2000000C014008B501210820FEF74BFD4FF48070ADF8000003208DF8020010208DF8CB
:202D4000030069460448FDF729FE4FF480710248FDF7ACFE08BD0000000C014010B513480C
:202D6000006840F001001149086008464068104908400E494860084600680E4908400B49B9
:202D800008600846006820F4802008600846406820F4FE0048604FF41F008860FFF730FFDA
:202DA0004FF000600449086010BD0000001002400000FFF8FFFFF6FE08ED00E07047704774
:202DC00070477047704770477047704770477047704770477047704721B1828942F40052FA
:202DE000828104E082894DF6FF731A408281704710B504462048844209D101218803FEF75F
:202E0000F1FC00214FF48040FEF7ECFC32E01B48844209D101214804FEF7C4FC00214FF428
:202E20000030FEF7BFFC25E01548844209D101218804FEF7B7FC00214FF48020FEF7B2FCB3
:202E400018E01048844209D10121C804FEF7AAFC00214FF40020FEF7A5FC0BE00A488442DC
:202E600008D101210805FEF79DFC00214FF48010FEF798FC10BD0000003801400044004075
:202E800000480040004C00400050004002460020B1F5007F00D100BF13880B4201D0012097
:202EA00000E00020704700002DE9F04786B004460D460026002700BFB146B246A88900B15E
:202EC00000BFA246268A4CF6FF700640E88806432682A6894EF6F3100640A888298908435A
:202EE000698908430643A681A68A4FF6FF400640A8890643A68201A8FEF7DCFC54461F4812
:202F0000824501D1049F00E0039FA08910F4004F08D007EBC70000EB071029684900B0FB5F
:202F2000F1F807E007EBC70000EB071029688900B0FBF1F86420B8FBF0F00601300964217C
:202F400001FB1089A08910F4004F09D0322101EBC9006421B0FBF1F000F00700064308E046
:202F6000322101EB09106421B0FBF1F000F00F000643268106B0BDE8F087000000380140AE
:202F8000C1F3080282807047704700002DE9F0410446002500260027A8463EA000F01EFA2C
:202FA000FDF7BAFC0021204600F0EBFE224640213D4800F0B7FE61E06D1E0B2D59DB3A485A
:202FC00000783A2855D13848C07930280BD13648007A342807D1042133480930FDF76AFDA4
:202FE0001FFA80F845E03048C079302841D12E48007A30283DD104212B48C01CFDF75AFDEB
:2030000040EA08402949086008460068284988422FD32648006825490C310968884228D2BB
:20302000A5F10B0606EBD6714910B6EB410120D1202E1EDC304606EBD6714E1000270BE01E
:20304000092202EB4701184A88180221FDF732FD15493239C8557F1CB742F1DB002706E075
:20306000114A323A02EB870000F0FAF87F1C042FF6DB224640210C4800F054FE0A48FDF7EF
:2030800099F8050098D1FDF703FCFDF7EBFBBDE8F081000053746172742053442055706440
:2030A000617465210D0A000060050020140000200050000810B500210548FFF78DFE04488D
:2030C000FFF796FE002144F20500FEF77BFB10BD0038014000B585B0012144F20500FEF71D
:2030E00071FB4FF40070ADF8100003208DF8120018208DF8130004A91348FDF74FFC4FF4E8
:203100008060ADF8100004208DF8130004A90E48FDF744FC4FF4612000900020ADF804000A
:20312000ADF80600ADF80800ADF80C000C20ADF80A0069460548FFF7B7FE01210348FFF7A1
:203140004BFE05B000BD000000080140003801407047000000BF0348C06810F0010FFAD12E
:203160007047000000200240F8B504460E46354D62E06846FDF74AFD00285DD09DF8000054
:20318000FDF7C0FC002857D02F480078152853D12E48007811284FD1002505E02B49681C97
:2031A000085C103948556D1C102DF7D32748407C2649897C40EA01202449C97C40EA01402E
:2031C0002249097D40EA01601F49091F0860002C30D008460068B04201D00120F8BD0025DB
:2031E00008E01A481038405D615D884201D00120F4E76D1C102DF4D3102014492E39087052
:20320000012048701048083800680068000A88700D48083800680068C8700020087148717C
:2032200006210A482E3800F099F809A000F0D6F80020D3E70120D1E72800A5F1010598D1E7
:20324000CCE7000040420F00400000202E0500204D6435207468652073616D65210D0A0032
:2032600070B5044600253B4800683A491039096888426ED037481030006840B935481038A5
:2032800000683449103108603348FDF7BBF93148103800682F4908390968B0FBF1F02D4928
:2032A00009682C4A083A1268B1FBF2F1884204D0284810380068FDF7A5F926480068254948
:2032C0001039096888421FD000251BE014F82520012303EB8503E35C42EA0322022303EBCD
:2032E0008503E35C42EA0342032303EB8503E35C42EA0361174A103A126802EB850000F0A4
:2033000051F86D1C042DE1D312481038006811490860081D0068401C091D0860102811D397
:20332000002008602B20FFF75DFC0A4808300068401C084908310860042803D300200860A1
:20334000FFF7C6FC03480C300068401C01490C31086070BD240000200048000830B502468D
:203360000B460025A520FFF73DFC0520FFF73AFC1846FFF737FCA52585F005055D4085F0B0
:203380005505002405E0105DFFF72CFC105D4540641C9C42F7D32846FFF724FC5520FFF736
:2033A00021FC30BD70B504460D46FFF7D3FE0A48006940F00100084908612580FFF7CAFE71
:2033C000280C6080FFF7C6FE0348006941F6FE7108400149086170BD002002400FB410B5B3
:2033E00003A9044B044A029800F018F810BC5DF814FB000089410008B800002002E008C85E
:20340000121F08C1002AFAD170477047002001E001C1121F002AFBD1704700002DE9FF4F4A
:2034200089B004469A46002593E025286FD10027641C4E4AB84601212378203B01FA03F0C1
:20344000104202D00743641CF6E720782E281AD114F8010F47F004072A280DD10A98641C18
:2034600050F8048B0A900EE008EB880002EB400001EB0008641C01E06FF02F022178A1F135
:2034800030000928F0D92078002866D0642809D0692807D0752864D10A994FF00A0901C9AE
:2034A0000A9116E00A994FF00A0901C90A91002804DAC0F100004FF02D0102E0390504D504
:2034C0002B218DF80010012104E0F90701D02021F7E700218B4609AE06E04946FCF772FE94
:2034E00001F1300106F8011D0028F6D101A8A0EB060000F12009780701D44FF0010800208E
:20350000C84501DDA8EB09008046002707E028E01DF8070052460B9990476D1C7F1C5F4551
:20352000F6DB04E0302052460B9990476D1CB8F10000A8F10108F5DC05E016F8010B524637
:203540000B9990476D1CB9F10000A9F10109F4DC641C207800287FF468AF28460DB0BDE8AF
:20356000F08F52460B9990476D1CF1E70928010070B504460D46607801232A4604F12801DA
:2035800000F07EFB08B1032070BD94F8261294F8270241EA0020A0F52A41553901D0022074
:2035A000F2E794F86100010694F8600041EA004194F85F0041EA002194F85E00014321F070
:2035C0007F400E49884201D10020DDE794F87D00010694F87C0041EA004194F87B0041EA9F
:2035E000002194F87A00014321F07F400349884201D10020C8E70120C6E700004641540030
:20360000024600E0521C107810B110788842F9D1107870472DE9F74F86B00698D0F800A0D8
:203620009AF80000A0F13007092F09D89AF801003A2805D10AF1020A0698C0F800A001E06E
:20364000AB4807781FB10B2009B0BDE8F08FA848801F50F827B00798C0F800B0BBF1000FB0
:2036600001D10C20F0E79BF8000048B19BF8010000F03AFB804618F0010F01D10020E3E796
:2036800000208BF800008BF801709BF8010000F0DFFA804618F0010F01D00320D4E7002089
:2036A000014605905846FFF763FF0446012C13D10BF5F376307978B1F07A0106B07A41EADC
:2036C0000041707A41EA0020317A0843059058460599FFF74DFF0446032C01D10120B3E765
:2036E0000CB10D20B0E7332010F80B10342010F80B0041EA0020B0F5007F01D00D20A3E775
:203700003E2010F80B103F2010F80B0041EA00200490049870B99BF84F0001069BF84E0048
:2037200041EA00419BF84D0041EA00219BF84C00014304910498CBF81400382010F80B500B
:203740008BF80350012D03D0022D01D00D207BE7049868430490352010F80B0005468BF8F2
:20376000020015B1681E284201D00D206CE7392010F80B103A2010F80B0041EA0020ABF869
:203780000800BBF8080010F00F0F01D00D205BE73B2010F80B103C2010F80B0041EA0020D0
:2037A0000390039870B99BF84B0001069BF84A0041EA00419BF8490041EA00219BF8480081
:2037C00001430391362010F80B10372010F80B0041EA0029B9F1000F01D10D2034E704986B
:2037E0004844BBF8081000EB11100290DDE90201814201D20D2027E7DDE90210401A9BF875
:203800000210B0FBF1F00190019808B90D201BE7012440F6F6710198884200D302244FF68D
:20382000F6710198884200D303240198801CCBF81000029905980844CBF82000059848442C
:20384000CBF81800032C19D1BBF8080008B10D20FAE69BF8570001069BF8560041EA0041AD
:203860009BF8550041EA00219BF854000143CBF81C10DBF81000800000901BE0BBF8080051
:2038800008B90D20E0E6DBF8181004980844CBF81C00022C03D1DBF81000400009E0DBF8D1
:2038A000100000F00100DBF8101001EB410100EB51000090DBF81410009800F2FF10B1EBEE
:2038C000502F01D20D20BFE68BF800400848801E0088401C80B20649891E0880ABF80600D6
:2038E0000020CBF824008BF80400CBF80C00ABE68E0000200246891E1069801E884201D883
:20390000002070479378106A01FB0300F9E70146002002E04910421CD0B20129FAD170473E
:203920002DE9F34F81B00C460198D0F818800B222021404600F066FD002005468246814672
:2039400008200090D4F800B04D461BF809002E2827D100BF484609F101091BF800602E2E16
:2039600002D1B9F1030F00D305E050460AF1010A08F80060EEE700BF2F2E06D05C2E04D0DF
:20398000202E02DD0620BDE8FE8F0BEB09002060202E01DC242000E0202088F80B000020E9
:2039A000F1E700BF484609F101091BF80060202E03DD2F2E01D05C2E00D155E02E2E02D051
:2039C000009882450DD30098082801D12E2E01D00620D8E74FF0080A0B200090A806050E2F
:2039E000E0E7802E01DB45F00305812E1FDBFE2E1DDC484609F101091BF80070402F01DB0B
:203A00007E2F03DD802F05DBFE2F03DC0098401E504501D80620B6E750460AF1010A08F8BB
:203A2000006050460AF1010A08F800701BE0314623A0FFF7E5FD08B10620A4E7412E04DB55
:203A40005A2E02DC45F0020508E0612E06DB7A2E04DC45F00105A6F12000C6B250460AF1E9
:203A6000010A08F800609DE700BF0BEB09002060202E01DC042000E00020C6B2BAF1000F98
:203A800001D106207FE798F80000E52802D1052088F800000098082801D1A806050E05F063
:203AA0000300012801D146F0100605F00C00042801D146F0080688F80B60002063E7000024
:203AC000222A2B2C3A3B3C3D3E3F5B5D7C7F00002DE9F04104460021204600F06BF806466E
:203AE00016B13046BDE8F08100BF2169206800F093FC064606B116E065692F780FB90426C3
:203B000011E0E87A10F0080F06D10B222846A16900F058FC00B906E00021204600F006F867
:203B20000646002EE1D000BF3046DBE72DE9F04104460F46E088401C86B20EB1206910B970
:203B40000420BDE8F08116F00F0F29D12069401C2061E06828B920680089B04220DC04205B
:203B6000EFE720688078401E10EA161F18D1E168206800F01BFB0546012D01D80220E0E767
:203B8000681C01D10120DCE720680069A84201D80420D6E7E56029462068FFF7ABFE2061FA
:203BA000E6802068283006F00F0100EB411060610020C6E72DE9F04106460C46F480B76877
:203BC000012F03D030680069B84202D80220BDE8F0812FB930680078032801D13068C76918
:203BE00067B9F76030680089A04201DC0220EEE73068C06900EB1410306120E03068807886
:203C0000050112E03946306800F0D0FA0746781C01D10120DBE7022F03D330680069B84243
:203C200001D80220D3E7601B84B2AC42EADAF76039463068FFF75EFE00EB14103061306874
:203C4000283004F00F0100EB411070610020BEE770B5054625B1012D0BD0022D0DD10AE0F0
:203C6000FEF7DCFA04462A2C01D1002070BD0120FCE70120FAE70120F8E70120F6E70000B6
:203C80002DE9F04104460D4616461F4617B90420BDE8F08124B1012C1DD0022C1DD11BE06F
:203CA000012F08D10F48806C82B271022846FEF7BBFC804608E00B48806C82B271023B46E2
:203CC0002846FEF7E7FD8046B8F12A0F01D10020DEE70120DCE701E000E000BF00BF0120FA
:203CE000D6E70000D8070020014621B1012904D0022906D103E0002070470020FCE7002012
:203D0000FAE700BF00BF0120F6E770B504462668A188304600F094FB05460DB9002020607A
:203D2000284670BD2DE9FC4704460D4616464FF00008A14616E06B46012201A9304600F08E
:203D400008F90098012800D00FE09DF804700D2F00D107E009F8017B08F101080A2F00D15C
:203D600003E000BF681E4045E5DC00BF002089F80000B8F1000F02D02046BDE8FC8700203D
:203D8000FBE72DE9F04704460D46A188206800F057FB064616B13046BDE8F087A07910F0A6
:203DA000800F01D00220F7E7E068A84200D2E568D4F808A04FF00009C4F80890002D55D0F0
:203DC000206880784FEA4028BAF1000F12D0681EB0FBF8F0AAF10101B1FBF8F1884209D335
:203DE000AAF10100A8F101018843A060A0682D1A676901E027696761002F37D01EE03946B6
:203E0000206800F0D3F90746781C05D1A07940F08000A0710120BFE7012F03D92068006909
:203E2000B84205D8A07940F08000A0710220B3E76761A0684044A060A5EB08054545DED8E4
:203E4000A0682844A060E805C00D0FD039462068FFF750FD8146B9F1000F05D1A07940F06C
:203E60008000A071022097E709EB5529A068C005C00D13D0A069484510D02168487801233F
:203E80004A4604F11C01FFF7FBFE28B1A07940F08000A07101207FE7C4F8189030467BE71B
:203EA0000346012B01DB0B207047074850F823200AB10020107009B100200870024840F8C6
:203EC00023100020F0E7000088000020F7B58AB0044615460020206005F00105002203A91C
:203EE0000BA8FFF797FB0746CDF824D027B903A80B9900F0EBF80746089E3FB90EB90627A0
:203F000004E0F07A10F0100F00D00427F7B9A571B17EF07E41EA0021327D707D42EA0020A2
:203F200041EA00402061F07F0106B07F41EA0041707F41EA0020317F0843E0600020A060EF
:203F4000A061039820600398C088A08038460DB0F0BD2DE9FF5F04460D4616461F460095F3
:203F600000203860A188206800F06AFA0390039818B1039804B0BDE8F09FA07910F0800F62
:203F800001D00220F6E7A07910F0010F01D10720F0E7D4E90210401A02900298864200D962
:203FA000029E8EE0A068C005C00D6CD120688078401EA16800EA5120C0B201900198E0B9A5
:203FC000A06808B9206903E06169206800F0EEF88046B8F1010F05D8A07940F08000A0714E
:203FE0000220C7E718F1010005D1A07940F08000A0710120BEE7C4F8148061692068FFF7D9
:020000040800F2
:2040000079FC8146B9F1000F05D1A07940F08000A0710220AEE7019881444FEA562BBBF180
:20402000000F1CD00198584421688978884204D9206881780198A1EB000B216848780BF02A
:20404000FF034A460099FFF71BFE28B1A07940F08000A07101208DE74FEA4B2A26E0A06921
:2040600048450ED02168487801234A4604F11C01FFF706FE28B1A07940F08000A0710120F8
:2040800078E7C4F81890A068C0F30800C0F5007AB24500D9B246A068C0F3080204F11C00CD
:2040A00011185246009800F0A0F900BF009850440090A0685044A060386850443860A6EBAA
:2040C0000A06002E7FF46EAF002053E72DE9F3410446019800782F2803D0019800785C2854
:2040E00005D10198401C01900020A06002E02068C068A06001980078202807D200212046F9
:20410000FFF758FD05460020606139E000BF01A92046FFF705FC054605B130E02046FFF7DC
:20412000D7FC0546A069C77A95B1042D00D026E017F0200F07D00020A0606061002517F0B0
:20414000040F04D1E3E717F0040F00D1052516E017F0040F00D012E06669F07A10F0100F6E
:2041600001D105250BE0B17EF07E41EA0021327D707D42EA002041EA0040A060C7E700BFAF
:204180002846BDE8FC81000070B504460D4600BF40210548FEF77AFE0028F9D0E1B2024825
:2041A000FEF7EEFE204670BD003801402DE9F04104460D46022D02D32069A84202D80120BC
:2041C000BDE8F0812078012804D002282BD0032861D13FE02F463D4607EB5707A06900EB57
:2041E0005721204600F018F900B154E0C7F3080104F12800465C7F1CA06900EB572120460C
:2042000000F00AF900B146E0C7F3080104F12800405C46EA002615F0010F01D03009CFE72D
:20422000C6F30B00CCE7A06900EB1521204600F0F3F800B12FE040F2FF1101EA450104F174
:20424000280001EB000898F8000098F8011040EA0120B5E7A06900EBD511204600F0DCF826
:2042600000B118E040F2FF1101EA850104F1280001EB000898F80300000698F8021040EA6C
:20428000014098F8011040EA012098F80010084320F0704094E700BF4FF0FF3090E7000027
:2042A0002DE9F04142F21074002500272A4EFDF7A9FAFEF70FFFFEF735FD28A0FFF78EF836
:2042C0002CA0FFF78BF82F493068884202D106F10805B76939462846FDF794FD18B9394606
:2042E0002846FCF767FD27493068884217D126497068884213D325A0FFF770F800BF200046
:20430000A4F10104FBD125497068084024490860FEF7D0FEFEF7F8FC7068FBF723FF21A07B
:20432000FFF75CF8244C00BF2000A4F10104FBD171B600BF2148006800F4E060204940EA00
:20434000010000F104004FF0E021C1F80C0DBFF3408F00BF00BFFEE70048000820200D0ACA
:204360004941502076657273696F6E3A20322E31300D0A0043726561746520427920466115
:204380006E0D0A008976231400500008537461727420417070210D0A0000000080FFFF1FE6
:2043A00008ED00E04E6F2046696E6420536F75726365210D0A200000404B4C000CED00E031
:2043C0000000FA05F0B5044625460B46002000BF1600A2F1010207D015F8017B13F801CB71
:2043E000A7EB0C063000F3D0F0BD70B504460B4603E013F8015B04F8015B1500A2F101026C
:20440000F7D170BD30B5034601E003F8011B1400A2F10102F9D130BD70B504460D46666A8E
:20442000AE420BD055B1607801232A4604F12801FFF726FC08B1012070BD65620020FBE739
:2044400070B504460D4624B1207810B1E088A84201D0092070BD6078FFF746FC10F0010FD3
:2044600001D00320F6E70020F4E700008C44000800000020BC000000FC33000848450008F0
:20448000BC000020B40B00000C3400080000000001020304010203040607080902040608F3
:2044A0000000000000000000000000000000000000000000000000000000000000000000FC
:2044C00000000000E0F7FF1F00000000000000008000000000000000000000000000000067
:2044E0000000000000000000000000000000000000000000000000000000000000000000BC
:2045000000000000000000000000000000000000010000000000000000000000000000009A
:20452000000000000200000000000000000000002A0000000000000000000000000000004F
:204540000000000000000000FFFFFFFFFFFFFFFFFFFFFFFFFFFFFFFFFFFFFFFFFFFFFFFF73
:20456000FFFFFFFFFFFFFFFFFFFFFFFFFFFFFFFFFFFFFFFFFFFFFFFFFFFFFFFFFFFFFFFF5B
:20458000FFFFFFFFFFFFFFFFFFFFFFFFFFFFFFFFFFFFFFFFFFFFFFFFFFFFFFFFFFFFFFFF3B
:2045A000FFFFFFFFFFFFFFFFFFFFFFFFFFFFFFFFFFFFFFFFFFFFFFFFFFFFFFFFFFFFFFFF1B
:2045C000FFFFFFFFFFFFFFFFFFFFFFFFFFFFFFFFFFFFFFFFFFFFFFFFFFFFFFFFFFFFFFFFFB
:2045E000FFFFFFFFFFFFFFFFFFFFFFFFFFFFFFFFFFFFFFFFFFFFFFFFFFFFFFFFFFFFFFFFDB
:20460000FFFFFFFFFFFFFFFFFFFFFFFFFFFFFFFFFFFFFFFFFFFFFFFFFFFFFFFFFFFFFFFFBA
:20462000FFFFFFFFFFFFFFFFFFFFFFFFFFFFFFFFFFFFFFFFFFFFFFFFFFFFFFFFFFFFFFFF9A
:20464000FFFFFFFFFFFFFFFFFFFFFFFFFFFFFFFFFFFFFFFFFFFFFFFFFFFFFFFFFFFFFFFF7A
:20466000FFFFFFFFFFFFFFFFFFFFFFFFFFFFFFFFFFFFFFFFFFFFFFFFFFFFFFFFFFFFFFFF5A
:20468000FFFFFFFFFFFFFFFFFFFFFFFFFFFFFFFFFFFFFFFFFFFFFFFFFFFFFFFFFFFFFFFF3A
:2046A000FFFFFFFFFFFFFFFFFFFFFFFFFFFFFFFFFFFFFFFFFFFFFFFFFFFFFFFFFFFFFFFF1A
:2046C000FFFFFFFFFFFFFFFFFFFFFFFFFFFFFFFFFFFFFFFFFFFFFFFFFFFFFFFFFFFFFFFFFA
:2046E000FFFFFFFFFFFFFFFFFFFFFFFFFFFFFFFFFFFFFFFFFFFFFFFFFFFFFFFFFFFFFFFFDA
:20470000FFFFFFFFFFFFFFFFFFFFFFFFFFFFFFFFFFFFFFFFFFFFFFFFFFFFFFFFFFFFFFFFB9
:20472000FFFFFFFFFFFFFFFFFFFFFFFFFFFFFFFFFFFFFFFFFFFFFFFFFFFFFFFFFFFFFFFF99
:20474000FFFFFFFFFFFFFFFFFFFFFFFFFFFFFFFFFFFFFFFFFFFFFFFFFFFFFFFFFFFFFFFF79
:20476000FFFFFFFFFFFFFFFFFFFFFFFFFFFFFFFFFFFFFFFFFFFFFFFFFFFFFFFFFFFFFFFF59
:20478000FFFFFFFFFFFFFFFFFFFFFFFFFFFFFFFFFFFFFFFFFFFFFFFFFFFFFFFFFFFFFFFF39
:2047A000FFFFFFFFFFFFFFFFFFFFFFFFFFFFFFFFFFFFFFFFFFFFFFFFFFFFFFFFFFFFFFFF19
:2047C000FFFFFFFFFFFFFFFFFFFFFFFFFFFFFFFFFFFFFFFFFFFFFFFFFFFFFFFFFFFFFFFFF9
:2047E000FFFFFFFFFFFFFFFFFFFFFFFFFFFFFFFFFFFFFFFFFFFFFFFFFFFFFFFFFFFFFFFFD9
:2048000089762314006000082D8075470D9E5FF90862F60100FFDD9C99790300FFFFFFFFA4
:20482000FFFFFFFFFFFFFFFFFFFFFFFFFFFFFFFFFFFFFFFFFFFFFFFFFFFFFFFFFFFFFFFF98
:20484000FFFFFFFFFFFFFFFFFFFFFFFFFFFFFFFFFFFFFFFFFFFFFFFFFFFFFFFFFFFFFFFF78
:20486000FFFFFFFFFFFFFFFFFFFFFFFFFFFFFFFFFFFFFFFFFFFFFFFFFFFFFFFFFFFFFFFF58
:20488000FFFFFFFFFFFFFFFFFFFFFFFFFFFFFFFFFFFFFFFFFFFFFFFFFFFFFFFFFFFFFFFF38
:020000040800F2
:20600000C0F3002015640008CD360308D12C0308B13603087D7100084D7003080000000066
:20602000000000000000000000000000CD4C0308958F000800000000893F0308B965030814
:206040006D700308913E0308BD670308A5410308DD2303085D410308C12103080922030887
:206060002D22030851220308752203087D8C0008A18C0008C58C0008E98C00080D8D0008E8
:20608000318D0008558D0008D96E0008996D0308BD6D030899710008BD71000899220308AD
:2060A000E16703084D68030829680308056803087168030895680308B9680308192D030850
:2060C000F52C0308612D03083D2D0308854B0308A94B0308316C0308556C0308796C030848
:2060E000E521030881410308756D030849690308B5690308916903086D690308FD6E000896
:2061000035240308614B0308DD680308CD4B0308E96B03080D6C0308016903082569030800
:20612000798D00089D8D0008C18D0008E58D0008DFF80CD000F032FC004800477D7E0308E9
:20614000C0F30020EFF30980704780F309887047EFF30880704780F30888704740BA704703
:20616000C0BA70472DE9F85F40F804DB51F804DBBDE8F85F62B670472DE9F85F50F804DBE3
:20618000BDE8F85F62B6704772B6704762B6704740EA01039B070AD102E008C9121F08C02F
:2061A000042AFAD203E011F8013B00F8013B521EF9D270470FB400B58DB0009002904FF081
:2061C000FF3001900020039006480A9010A9064804910B9004AA68460F9900F087F90DB0FC
:2061E0005DF814FB0D650008296500082DE9FF5FD3E901464FF0FF3B91461D465F464FF01D
:206200000008A9697F1C01988847296A824688470028F6D11AF1010003D1584604B0BDE871
:20622000F09F24F4C064002E39DD60060FD55046BAF12B0F03D02D2809D144F48064A9695A
:206240007F1C01988847761E8246002E27DDBAF1300F24D1761EA96944F400747F1C019848
:2062600088478246002E15DDBAF1780F02D0BAF1580F0FD1B9F1000F02D0B9F1100F1ED12E
:20628000761EA96924F400747F1C019888478246102008E0B9F1000F11D1082003E0B9F199
:2062A000000F0CD10A20814609E008FB0908761EA96944F400747F1C019888478246002EB9
:2062C00005DD4946504600F0FAF80028EDDAE96901988847A00502D46FF001009EE7E007E5
:2062E00025D1600613D5C8F10000610500D44046296801F104022A600968220501D50870E8
:2063000015E0220701D5088011E008600FE0286800F1040129600068210502D580F800804D
:2063200005E02107414601D5018000E00160384674E780EA010202F0004330B430F0004270
:2063400021F0004015D0A0B1C0F3C754C2F3C755C2F31601C0F316002D1B41F4000140F4D0
:2063600000007D35814201D36D1C00E04900002D02DA30BC002070474FF40002002481422A
:2063800001D3091A144352084FEA4101F7D151B1814202D14FF0004105E002D24FF0010100
:2063A00001E06FF0010104EBC55030BC184400F0CCB896230022114600F0D0B800F00042FF
:2063C00020F00040C10DC0F3160040F400007F2901DA00207047962903DCC1F19601C84059
:2063E00001E096398840002AF4D04042704700F0004230F0004001D101467047C30DC0F319
:20640000160003F56073C108400742EA03521143704700000648804706480047FEE7FEE78B
:20642000FEE7FEE7FEE7FEE7FEE7FEE7FEE7FEE7696703083161000830B50B460146002022
:206440002022012409E021FA02F59D4205D303FA02F5491B04FA02F52844151EA2F10102A1
:20646000F1DC30BD2DE9F047002591469A46074688462E46402418E022464146384600F0F1
:20648000AFFAB0EB090071EB0A010ED322465146484600F095FA3F1A68EB0108224600211D
:2064A000012000F08DFA45194E41201EA4F10104E2DC284631463A464346BDE8F0873A2855
:2064C00000D2303820F02002412A01D3A2F137004FF0FF32884200D20246104670470000E6
:2064E0000268034610781144196070470B461146D360044A4A61044A0A6200220A6100F0D1
:2065000095BA0000E1640008216A000843683BB1026812F8011B19B15B1E0CC00846704711
:206520000121C160881E7047416859B1C368026843B98368934205D0521E491CC0E9002143
:20654000002070474FF0FF3070470029A8BF7047401C490008BF20F00100704710B4B0FA56
:2065600080FC00FA0CF050EA010404BF10BC704749B1CCF1200421FA04F411FA0CF118BF57
:20658000012121430843A3EB0C01CB1D4FEA00614FEA102042BF002010BC704700EBC35002
:2065A00010440029A4BF10BC7047401C490008BF20F0010010BC70472DE9FF4D81EA0300A8
:2065C00086B04FEAD07806981D460F4623F0004321F00041801A1646994105D23946069842
:2065E0002F46069606460D46002325F00041594086EA0300084304D1069839460AB0BDE8CA
:20660000F08D3C0DC4F30A00C5F30A510590401A049040286BDAC5F3130040F4801AB8F16E
:20662000000F02D076426AEB4A0A04985146C0F14002304600F0C4F983460D4651463046A6
:20664000049A00F0DCF9069A86184F4184EA175050EAE47042D0B8F1000F2CD004984FF005
:20666000000201284FEA045312DCB01A67EB03014FF0004303EA0454059B001CCDE90143D4
:20668000009241F580112B465A4600F084FBB5E7B01A67EB0301001C41F5801100184941E0
:2066A000001CA3F5001341EB030740EAD5761BEB0B0B6D4112E06D084FEA3B0B4FEA045427
:2066C000301E67EB0401001C41F58011490845EAC6754FEA3000061C41EB04072B465A46A4
:2066E000394630460AB0BDE8F04D00F03BBB4FEA48000122141A0023069A63EBE073B2EB50
:20670000080067EBE8712246ECE783F0004353E781F0004150E72DE9F04D834681EA030028
:2067200023F0004488B000F00040002321F00045079085EA03018BEA03009246084305D0A7
:2067400084EA03018AEA0300084304D10020014608B0BDE8F08DC4F30A50C5F31301C5F35A
:206760000A521318ABFB0A2541F48018C4F3130141F48014A3F2F33308FB0A5104930BFBA6
:2067800004134FEA9B204FEA9A2140EA885041EA8451A0FB01654FEA982707FB01514FEA72
:2067A000942C00FB0C1739053005151A41EA163163EB010105914FEA9B604FEA9A6140EA6F
:2067C000881041EA8411A0FB0140321E804667EB0403280D0599C5F3130540EA013086187A
:2067E00043EB1150001948F10001049B2A030C3B46EA15540293079D0023CDE9003523465B
:2068000000F0C9FAA4E72DE9FF0F054681EA0302002082B002F0004223F00046CDE90002C4
:20682000034621F0004484EA030168404FF4801A084325D00023049886EA0301584008436D
:206840001ED0C4F30A51C4F3130242F48014C6F3130242F48012C6F30A5013460592081AE7
:20686000049A00F2FD3BA81AD04674EB030102D30BF1010B01E06D196441BBF1000F05DA92
:2068800006B0BDE8F00F00200146704700264746B046B24611E0DDE90423A81A74EB0301DC
:2068A00006D3AD1A64EB030448EA06084AEA070A7F084FEA36066D196441002387EA03019E
:2068C00086EA03000843E6D184EA030185EA0300084315D0DDE9042384EA030185EA02005F
:2068E000084303D100254FF0004409E0A81A74EB030102D20125002402E06FF001056C10E2
:20690000DDE9002318F100004AEB0B518018594123462A4606B0BDE8F00F00F023BA21F0B1
:2069200000410A0DC1F3130140F2FF3341F480119A4202DA00200146704740F233439A42B3
:20694000A2F2334202DC524200F04AB800F038B82DE9F04107460D46002001F00041414030
:20696000404016461C464FF00048084302D17F4268EB0505002004F0004141404040084375
:2069800002D1764268EB04043846294632462346994208BF9042BDE8F0810000064C074D13
:2069A00006E0E06840F0010394E8070098471034AC42F6D3FFF7C0FBA48D0308C48D0308CF
:2069C000202A04DB0023203A00FA02F106E000FA02F39140C2F12002D04001431846704740
:2069E000202A04DB203A21FA02F000217047D040C2F1200301FA03F31843D1407047202AEB
:206A000006DB203A41FA02F0C21742EAE1717047D040C2F1200301FA03F3184311417047C5
:206A20004FF4F051C0B200F013BA00002DE9F34F8BB04FF000084FF0010B01F10C000C462E
:206A40004646D9460DF1080A0A90626901210A989047050079D0252831D0216A2846884717
:206A6000C0B1626901210A989047216A88470028F7D1411E62690A98904700E0761CA169D6
:206A80000B988847216A88470028F7D1E1690B988847DAE7A1690B9888470746A84201D138
:206AA000761CD2E7E1690B9888477F1C4DD1B8F1000FFBD14FF0FF300DB0BDE8F08F00271C
:206AC00062693D4639460A9890472A2810D1626901210A98904701250AE0A1498F4234DCFC
:206AE00007EB870100EB4107303F2ED445F01005626901210A989047A0F130014A460A2943
:206B000001D2002AE9D1E90601D46FF000476C280BD1626901210A9890476C2802D145F0E2
:206B200002051CE045F004051DE04C2802D145F0200514E068280CD1626901210A989047AF
:206B4000682803D145F4006509E0C7E045F0080509E06A28E3D0742801D07A2803D1626985
:206B600001210A989047C4E90157652856D018DC582832D00CDC452850D004DC252839D0A1
:206B8000412893D14AE0462848D047288ED145E05B2879D0612841D063287CD0642885D166
:206BA00073E06F2859D010DC662837D0672835D069283BD06E28E4D1206800F104012160C7
:206BC000006829053CD506703FE770284FD0732861D0752859D07828D3D145F040006060B0
:206BE000A80749D5234610226FF001000B99AFF30080A0E0A1690B988847054625283FF440
:206C00004FAFE1690B9888476D1C3FF450AF65E023460A22E8E723460A222FE0234609AA96
:206C20006FF001000B99AFF3008084E045F040006060A80723464FF0000200D5D4E71DE0AF
:206C4000290701D5068000E7A90704D54FEAE671C0E90061F9E60660F7E645F04000606047
:206C6000A80723464FF0080200D5BDE706E040F60E0125EA01006060234610226FF0010044
:206C80000B99FFF7B3FA56E005E045F040006060A807C0D5BCE7002739460197632806D1D6
:206CA000E80601D4C4F80890012001903AE05B2838D1626901210A9890475E2804D101277C
:206CC000626939460A989047216931B90022534643F82120491C0829FADB08B94046EBE6C3
:206CE000216969B9C11700EBD16359110AEB810123F01F03C31A0A6809FA03F002430A60E7
:206D0000626901210A9890475D28E6D14FB10020514651F82020D24341F82020401C082877
:206D2000F7DB02A9019B00930B4622466FF001000B99AFF30080002809DA4FF0FF31401CF2
:206D400002D1BBF1000F00D141460846B4E6E90701D108F1010806444FF0000B75E60000B2
:206D6000CCCCCC0CF0B51F46044600230D46D01A164677EB03010BDA641C45F10005B019C4
:206D800047EB070159405840084301D124F0010420462946F0BD2DE9F04D92469B4611B102
:206DA000B1FA81F602E0B0FA80F620363246FFF707FE04460D46002340EA0A0041EA0B01BB
:206DC00059405840084303D120462946BDE8F08D00238BEA03018AEA0300084319D0C6F16E
:206DE000400259465046FFF7FBFD07468846324659465046FFF7E4FD0023594058400843F0
:206E000000D001204FEAE071384348EA010104430D430A984FEA4457A0EB06034FEAD4207A
:206E20000A334FF0000640EA45504FEAD52102D500200146CAE7001C41EB0351DDE9082366
:206E4000801859413B463246BDE8F04D8AE700007F2801D9002208E0064A02EB5002127810
:206E6000C00700D1120902F00F0201209040084070470000618D030870B501EB020410F854
:206E8000015B15F0070301D110F8013B2A1106D110F8012B03E010F8016B01F8016B5B1EF6
:206EA000F9D12B0706D4002301E001F8013B521EFBD50CE010F8013B02F10202A1EB0303CA
:206EC00003E013F8015B01F8015B521EF9D5A142D5D3002070BD00000348806D00B10047CD
:206EE000024903A030F0C2B92C040020188503084952513A25730D0A000000000348C06CC5
:206F000000B10047024903A030F0B0B9AC040020718703084952513A25730D0A000000005A
:206F20000029816802D041F0010101E021F00101816070470029816802D041F4807101E0C3
:206F400021F4807181607047014689680020490700D501207047014689680020090700D501
:206F60000120704710B542680E4B0C791A400B6842EA04221343436082680B4B1A40D1E980
:206F8000024323434C7942EA440213438360C26A097C22F47002491EC9B242EA0151C1621A
:206FA00010BD0000FFFEF0FFFDF7F1FF70B5072609290AD9C568A1F10A0404EB4404A640E3
:206FC000B543A3401D43C56007E0056901EB4104A640B543A3401D4305611F23072A09D2F6
:206FE000446B521E02EB820293409C4391400C43446370BD0D2A09D2046BD21F02EB820278
:2070000093409C4391400C43046370BDC46A0D3A02EB820293409C4391400C43C46270BDFF
:20702000816841F00801816070470029816802D041F4A00101E021F4A001816070478168C3
:2070400041F00401816070472DE9F041154C164D002040F21A4144F82010401C1428FAD3D9
:2070600000261427DFF8448002F072FE296844F82100491C91FBF7F007FB101085E841011B
:20708000002054F820106A68914200DD6960AA68914200DAA960401C1428F2D301202FF0A4
:2070A000B1F8E1E764720020180400209F86010010B501F0E9F8002807D02FF097F903A01F
:2070C0002FF06AFD2BF0CCFDFCE710BD436172746F6F6E20456E640070B5054603F09AFE8E
:2070E0004FF43F720EA110482CF09EFC2FF034FA0E4C0FA0617862682FF04EFD607800287C
:207100000CD015B16068A84208D202F0DDFEBDE870400E4A08210EA02FF00CB870BD0000E0
:207120004465697663650000A1910008E0030020446576696365547970653A25642C446538
:20714000766963654E756D3A25640000BD6A03087469636B54696D65720000007047000000
:2071600010B501F011FF03482CF0E6FCBDE8104001F01EBA352603087047000010B502A0BE
:2071800030F074F8FEE700004572726F7220427573210D0A000000000348406E00B1004701
:2071A000024903A030F062B82C0400205F8503084952513A25730D0A000000000348806E5A
:2071C00000B10047024903A030F050B82C040020738503084952513A25730D0A0000000079
:2071E000024B01461A69986F30F0B0BE88000020FEB50C4615461E4608A90EC98DE80E006C
:2072000033462A4621462FF093FFFEBD2DE9FF4F029C90F91A5024694E4EA70890F9184004
:20722000D6F81C8004FB05F900240E9A2546A246A446A3EB080309B9474900E01031B162BF
:20724000B1688B4274DA90F9196006EB0308B8F1000F7CDD002B01DD9A4601E0C3F1000C61
:20726000A6EB0C0353448B4204D90CEB0103A3EB0A0B00E0B34607EB0901491E914266D941
:207280004A4502DBA2EB090101E04FF0FF318E463049BA42D1F8049057D3A2EB070404F13E
:2072A00001043A4650E002992A4F01EB8201B1F91430BE69B1F91610B3EB06083B6AA1EBD4
:2072C000030640D4C8453EDA002E3CDBF9688E4239DA0D9979B990F9181090F9195094FBD9
:2072E000F1F34D435D430CFB015501FB134101440D441C3511E001290FD190F9181090F9B1
:20730000193094FBF1F54B436B430CFB013301FB1545491B01445D181B357B690AFB09F191
:2073200006FB0311BB6F664643441944BF6A08E00DE02B78761CFB5C0B7090F9183049441B
:207340001D445E45F5D3641C521E7245ABDCBDE8FF8F00008800002026830308F0B5DDE939
:207360000657074C059EC4E902656360C4E90712A0617343A76763616B432361F0BD0000B5
:2073800088000020F0B404AD95E8E010164CC4E90C35E26260624FF4B47097FBF0F200FB57
:2073A0001270A063002802DA00F5B470A063C4E90F6C11B90D48A06201E01031A162A06BAF
:2073C00010B9F0BC00F014B816B9F0BC00F06ABC012E02D1F0BC00F093BC022E02D1F0BC4F
:2073E00000F0BCBCF0BC704788000020268303082DE9F04FFB4AA8B0506A002873D0936953
:2074000051689A46D46A0B44A3426CDDD5699368AE465E19156B2795AE42F6DD166AD568B8
:20742000576BB3462E44B946BE42EEDD9446966BDCF83C80DCF818200392DCF82C70BA1A05
:207440002692039AD21B2592DCF81C200492DCF83070BA1A2492049AD21B2392DCF820203B
:207460000592DCF83470BA1A2292059AD21B219200225A2E38D0B42E7DD0B6F5877F7BD158
:207480006746B8F1010F78D0B8F1020F76D190F919600E962644A6EB0A076646F7660D97DE
:2074A00090F91860279FB0463E44A6EB0E0CCD4ECC4FC6F870C090F91A604E44A6EB0B0687
:2074C0003E650D9F8F4201DDC64FF966C54F9C4500DD3B67AE4200DD3D65544573DB3A66D0
:2074E000269C7C6698E2A7E3B8F1010F30D0B8F1020F69D190F91960B0462644A6EB0A0733
:20750000B84EF7661E9790F918601D96279F3E44A6EB0E0CB34EB34FC6F870C090F91A60B8
:207520004E44A6EB0B063E651E9F8F4201DDAD4FF966AC4F9C4500DD3B67AE4200DD3D65E3
:207540005445444662DB641E3C66269C7C6662E090F91A60A34F2644A6EB0A06FE662096A7
:2075600090F91960279F1F963E44A6EB0E0C9D4EC6F870C003E0D1E00DE3EAE173E290F95B
:207580001860B0464E44A6EB0B07964E3765209E8E4201DD934EF166924E9C4500DD3367EC
:2075A000AF4200DD3565544503DBB264269C746602E0259CB4647266279D754505DB3266B1
:2075C000249CB46604E024E24CE0239C3466B266D94505DBA8F10104F465229CF46405E05A
:2075E000219CA8EB0404641EF465F264F76E756E1F9CED1B08FB04FC05FB0C8AB76E356F95
:20760000ED1B08FB05F4E443746586E2259D641B641EC7E91842279C744503DBFA65249CB8
:20762000BC6602E0239CFC65BA66D94503DBBA64229CFC6402E0219CC7E912427E6EFD6ED4
:207640001D9CAD1BC4F1000C6C431D9D04F1010A08FB05F43E6F641BA8EB0605BE6E354414
:207660002C4459E290F91860B0462644A6EB0A075C4EF7661C9790F91A60279F1B963E44A6
:20768000A6EB0E0C574E574FC6F870C090F919601A964E44A6EB0B063E651C9F8F4201DD13
:2076A000504FF9664F4F9C4500DD3B67AE4200DD3D65544503DBFA65269C7C6602E0259C42
:2076C000FC657A66279C74451B9C04DB641EBC64249CBC6604E0239D641B641EBC64BA66EE
:2076E000D94503DB3A66229CFC6402E0219C3C66FA647D6EFC6E1A9E641B08FB0644C4F1A3
:20770000000A08FB06F44546D7F868803E6F4FF0010CA6EB080606FB0454FDE1B8F1010F98
:2077200030D090F91860B8F1020F75D1B0462644A6EB0A072B4EF766169790F91960279FFB
:2077400015963E44A6EB0E0C264E264FC6F870C090F91A604E44A6EB0B063E65169F8F421A
:2077600001DD204FF9661F4F9C4500DD3B67AE4200DD3D655445444664DB641EFC65269C19
:207780007C6664E090F9186019962644A6EB0A07144EF766189790F91960279F17963E44A2
:2077A000A6EB0E080F4E0F4FC6F8708090F91AC00CEB0906A6EB0B063E65189F8F4201DDA5
:2077C000084FF966074F984500DD3B67AE4200DD3D655445199C07DB641EFC65269C7C661B
:2077E00007E0000088000020259D641B641EFC657A66279C744503DB3A66249CBC6602E038
:20780000239C3C66BA66D94507DBACF1010CC7F848C0229CFC6406E03EE0219CACEB0404F8
:20782000641EC7E912427E6EFD6E199CAD1B04EB050A3D6FBC6E4FF0FF3C641B199D641BEC
:20784000179DF7E1259D641B641EFC657A66279C7445159C04DB641E3C66249CBC6604E0A2
:20786000239D641B641E3C66BA66D94503DBBA64229CFC6402E0219CC7E912427D6EFC6E55
:207880003E6F651BA5EB080A08EB0605BE6E4FF0FF3C159CAD1BCDE114962644A6EB0A0798
:2078A000FF4EDFF8FCC3F766139790F91980279EFB4F4644A6EB0E063E6790F91A7012971D
:2078C0004F44A7EB0B07CCF85070BC46139F8F4201DDF34FF966F24F9E4200DD3B67AC4558
:2078E00000DD3D65544503DBFA65269C7C6602E0259CFC657A66279C744505DBA8F10104B1
:207900003C66249CBC6605E0239CA8EB0404641E3C66BA66D94505DB129C641EBC64229C54
:20792000FC6405E0219CA8EB0404641EC7E912427E6EFD6E149CAD1B2C44C4F1000A3C6F7B
:20794000BD6EA8EB04042C444FF0010C6442149D70E190F91A6011962644A6EB0A07D04E29
:20796000F766109790F91960279F0F963E44A6EB0E0CCB4ECA4FC6F870C090F91860B04652
:207980004E44A6EB0B063E65109F8F4201DDC44FF966C34F9C4500DD3B67AE4200DD3D655F
:2079A0005445119C04DB641EBC64269C7C6604E0259D641B641EBC647A66279C744503DB5B
:2079C0003A66249CBC6602E0239C3C66BA66D94503DBFA65229CFC6402E0219CFC65FA64EB
:2079E000B9460F9CC8F1000C0F9DFE6E0CFB04FC7F6E08FB05F4F61B06FB048AD9F87060CF
:207A0000D9F86850AD1B08FB05F4641CC9F8544083E0259CC7E91842279C744505DBA8F121
:207A20000104FC65249CBC6605E0239CA8EB0404641EFC65BA66D94503DBBA64229CFC6484
:207A400002E0219CC7E91242FD6E7C6EC446641B08FB04F4A4F1010ABD6E3C6F641B0E9D0A
:207A600005FB084458E090F918600C962644A6EB0A0CC7F86CC0CDF82CC090F91A60DDF85A
:207A80009CC06644A6EB0E08C7F8708090F919600A964E44A6EB0B063E65DDF82CC08C457F
:207AA00000DDF966984500DD3B67AE4200DD3D65544503DBFA65269C7C6602E0259CFC6541
:207AC0007A66279C744503DBBA64249CBC6602E0239CBC64BA66D94505DB0A9C641E3C66C3
:207AE000229CFC6405E00A9D219C2C1B641E3C66FA64FD6E7C6E0A9E641B0C9DD7F868807A
:207B000005FB064A05FB06F43E6F4FF0010CA6EB080606FB045464427C65614CE66E656ECF
:207B20000795771BA66E256FB646A5EB060BD4E91386A6EB08060196002F7DDDBBF1000F02
:207B4000FBDD019E002EF8DD5B1BCE1B73444B430096A365069390F9183090F919901E4669
:207B6000A56C03FB09F36B433546266E06FB0533E56D284403446069079D08FB00F80EFB8E
:207B80000180A16F964629440844214662630A6C1C33616B7CE090F91860B0462644A6EBB4
:207BA0000A073F4EF766099790F91960279F08963E44A6EB0E0C3A4E394FC6F870C090F910
:207BC0001A604E44A6EB0B063E65099F8F4201DD334FF966324F9C4500DD3B67AE4200DD6E
:207BE0003D65544503DBFA65269C7C6602E0259CFC657A66279C744503DB3A66249CBC66A9
:207C000002E0239C3C66BA66D94503DBBA64229CFC6402E0219CC7E912427E6EFD6E089C2B
:207C2000AD1BA8EB050A3D6F4FF0010C641BBD6E2C4445466C436FE72EE07146C4F830E0A7
:207C40001CE0C4F82CE07546D4F828800EE0197818F801100AB9017004E0012A02D10678FD
:207C60000E430670401C6D1C6344E562BD42EED100995344084409F1010121638946594543
:207C8000DFD1616D0B44069908440299491C6163019D0291A942D0D128B0BDE8F08F0000AF
:207CA0008800002070B5154D88B06E6AEC6A96F91830A9691819A14200DD0C466A681144DC
:207CC000814200DA0846A04215DD96F9192096F91A1004AE0FC6A968E8692E6A4318E96837
:207CE0007218CDE9014203930090D5E90C213346002000F061F808B070BD00008800002081
:207D000070B5154D88B06E6A2C6B96F91930E9691819A14200DD0C46AA681144814200DAC4
:207D20000846A04215DD96F91A2096F9181004AE0FC6E968286AAE69431869687218CDE9B4
:207D4000014203930090334601206A6BE96A00F033F808B070BD00008800002070B5154DC9
:207D600088B06E6A6C6B96F91A30296A1819A14200DD0C46EA681144814200DA0846A042F9
:207D800015DD96F9192096F9181004AE0FC6A968E869AE69431869687218CDE9014203932D
:207DA0000090D5E90B123346022000F005F808B070BD0000880000202DE9FF4F85B0934DCA
:207DC000DDF860B0DDF85890139CA86B2EF0FCF90290A86B00F032FF002301900EE164203F
:207DE000179958436FF01802514300EB410E002000E164216FF0180541430BFB05F201EB82
:207E00004205019EDFF808C20EFB06F2029E029F05FB062292FBFCF2019E179975430EFBE6
:207E2000175501EBD17195FBFCF502EB6101069A11440BEBDB7205EB6202079D1544089AAD
:207E4000914241DB149A91423EDA129A9542F8DB159A9542F8DA059ABABB6C4ED6F824C06C
:207E6000D6F840809CF918209CF9197057435F4300FB02726244F76AA446D21B376A2244F9
:207E8000C91B77691C327943F769ED1B776805FB0711B56FB76A2944B569491B214411E02B
:207EA000B8F1000F02D115787D5D06E0B8F1010F04D116780D78BE5D35430D70521C491C66
:207EC0000CF1010CCC45EBDB93E0FFE7012A46D1DFF838C1DCF82480DCF8306098F9187061
:207EE00098F91920A61B7A43424306FB072208EB03063244DCF820601C32AE1BDCF8145076
:207F0000C2466E43DCF81C50671BDCF80450049507FB0565DCF81860891BDCF87860A44633
:207F200031443A4E2944D6F84080B76A14E0B8F1000F02D115787D5D06E0B8F1010F04D1CE
:207F400016780D78BE5D35430D709AF918500CF1010C2A44049D2944CC45E8DB49E0DFF8A9
:207F6000ACA0DAF82480D44698F9182098F9197016467A43DAF83470E71B7A4300FB0622D1
:207F800008EB03063244DAF81C601C32AE1BDAF804506E43DCF82050671BDCF8145003959D
:207FA00007FB0565DCF81860891BDCF87860A446314456462944DAF840A0B76A17E0BAF1DC
:207FC000000F02D115787D5D06E0BAF1010F04D116780D78BE5D35430D7098F9185098F935
:207FE00019600CF1010C05FB0622039D2944CC45E5DB401C5845FFF6FCAE5B1C1798834275
:020000040800F2
:20800000FFF6EDAE09B0BDE8F08F000088000020A08601002DE9FF4F854D87B0DDE9146C71
:20802000AF690024DB1B0A93EB69C01BC91AF31A14932B6AACEB0306D21A0A9B15961D1A03
:20804000149BB61A5B1A6F1C002D00DC6F1E5D1CB846002B00DC5D1E771CA946002E00DC86
:20806000771EBB467F43724E0097B7680697F768059708FB08F309FB09F5D6F878E0D6F8A6
